:020000040800F2
:10000000000002201D1200086D1200086D12000889
:100010006D1200086D1200086D120008000000004B
:100020000000000000000000000000006D12000849
:100030006D120008000000006D120008C10F0008DA
:100040006D1200086D1200086D1200086D12000894
:100050006D1200086D1200086D1200086D12000884
:100060006D1200086D1200086D1200086D12000874
:100070006D1200086D1200086D1200086D12000864
:100080006D1200086D1200086D12000800000000DB
:100090000000000000000000000000006D120008D9
:1000A0006D1200086D1200086D1200086D12000834
:1000B000AD1000086D1200086D1200086D120008E6
:1000C0006D1200086D1200086D1200086D12000814
:1000D0006D1200086D1200086D120008000000008B
:1000E000551000086D1200086D1200080000000095
:1000F0000000000000000000000000006D12000879
:10010000000000006D1200086D1200086D1200085A
:1001100000000000000000000000000000000000DF
:100120006D1200086D1200086D1200086D120008B3
:100130006D12000800000000000000000000000038
:100140000000000000000000000000006D12000828
:100150006D1200086D1200086D1200086D12000883
:100160006D1200086D120008000000000000000081
:10017000000000000000000000000000000000007F
:10018000000000006D1200080000000000000000E8
:080190006D1200086D12000859
:1001A00001F0FF01102A2BDB10F0070F08D010F828
:1001B000013B013A8B422DD010F0070F42B3F6D12C
:1001C000F0B441EA012141EA014122F007047FF045
:1001D00000070023F0E80256083C85EA010586EA9C
:1001E000010685FA47F5A3FA87F586FA47F6A5FAD8
:1001F00087F68EB9EED1F0BC01F0FF0102F00702E4
:1002000032B110F8013B013A83EA010313B1F8D18E
:100210000020704701387047002D06BF354603386F
:10022000073815F0010F07D1013015F4807F02BFA8
:10023000013015F4C03F0130F0BC0138704700BFF9
:10024000034613F8012B002AFBD1181A0138704716
:1002500081F0004102E000BF83F0004330B54FEA77
:1002600041044FEA430594EA050F08BF90EA020FE4
:100270001FBF54EA000C55EA020C7FEA645C7FEA77
:10028000655C00F0E2804FEA5454D4EB5555B8BF9A
:100290006D420CDD2C4480EA020281EA030382EA0B
:1002A000000083EA010180EA020281EA0303362D9D
:1002B00088BF30BD11F0004F4FEA01314FF4801C70
:1002C0004CEA113102D0404261EB410113F0004F82
:1002D0004FEA03334CEA133302D0524263EB430339
:1002E00094EA050F00F0A780A4F10104D5F1200ED7
:1002F0000DDB02FA0EFC22FA05F2801841F1000132
:1003000003FA0EF2801843FA05F359410EE0A5F105
:1003100020050EF1200E012A03FA0EFC28BF4CF036
:10032000020C43FA05F3C01851EBE37101F00045EC
:1003300007D54FF0000EDCF1000C7EEB00006EEBF9
:100340000101B1F5801F1BD3B1F5001F0CD3490883
:100350005FEA30004FEA3C0C04F101044FEA4452DA
:1003600012F5800F80F09A80BCF1004F08BF5FEA61
:10037000500C50F1000041EB045141EA050130BD41
:100380005FEA4C0C404141EB0101013C28BFB1F553
:10039000801FE9D291F0000F04BF01460020B1FA9E
:1003A00081F308BF2033A3F10B03B3F120020CDA71
:1003B0000C3208DD02F1140CC2F10C0201FA0CF04F
:1003C00021FA02F10CE002F11402D8BFC2F1200CB4
:1003D00001FA02F120FA0CFCDCBF41EA0C0190406A
:1003E000E41AA2BF01EB0451294330BD6FEA0404B3
:1003F0001F3C1CDA0C340EDC04F11404C4F120029E
:1004000020FA04F001FA02F340EA030021FA04F3AF
:1004100045EA030130BDC4F10C04C4F1200220FA06
:1004200002F001FA04F340EA0300294630BD21FA44
:1004300004F0294630BD94F0000F83F4801306BF0A
:1004400081F480110134013D4EE77FEA645C18BFFE
:100450007FEA655C29D094EA050F08BF90EA020F95
:1004600005D054EA000C04BF1946104630BD91EA8D
:10047000030F1EBF0021002030BD5FEA545C05D190
:100480004000494128BF41F0004130BD14F58004CF
:100490003CBF01F5801130BD01F0004545F0FE4143
:1004A00041F470014FF0000030BD7FEA645C1ABF78
:1004B000194610467FEA655C1CBF0B46024650EAAF
:1004C000013406BF52EA033591EA030F41F40021DB
:1004D00030BD00BF90F0000F04BF0021704730B561
:1004E0004FF4806404F132044FF000054FF0000136
:1004F00050E700BF90F0000F04BF0021704730B5F7
:100500004FF4806404F1320410F0004548BF4042CB
:100510004FF000013EE700BF42004FEAE2014FEA20
:1005200031014FEA02701FBF12F07F4393F07F4FFB
:1005300081F06051704732F07F4208BF704793F0FE
:100540007F4F04BF41F40021704730B54FF4607411
:1005500001F0004521F000411CE700BF50EA010214
:1005600008BF704730B54FF000050AE050EA0102BD
:1005700008BF704730B511F0004502D5404261EB2D
:1005800041014FF4806404F132045FEA915C3FF46E
:10059000D8AE4FF003025FEADC0C18BF03325FEA0B
:1005A000DC0C18BF033202EBDC02C2F1200300FABC
:1005B00003FC20FA02F001FA03FE40EA0E0021FAE1
:1005C00002F11444BDE600BF70B54FF0FF0C4CF4CF
:1005D000E06C1CEA11541DBF1CEA135594EA0C0F81
:1005E00095EA0C0F00F0DEF82C4481EA030621EABC
:1005F0004C5123EA4C5350EA013518BF52EA0335F7
:1006000041F4801143F4801338D0A0FB02CE4FF0A8
:100610000005E1FB02E506F00042E0FB03E54FF0D8
:100620000006E1FB03569CF0000F18BF4EF0010ED0
:10063000A4F1FF04B6F5007F64F5407404D25FEACC
:100640004E0E6D4146EB060642EAC62141EA55517F
:100650004FEAC52040EA5E504FEACE2EB4F1FD0CC1
:1006600088BFBCF5E06F1ED8BEF1004F08BF5FEA3F
:10067000500E50F1000041EB045170BD06F00046F1
:1006800046EA010140EA020081EA0301B4EB5C049E
:10069000C2BFD4EB0C0541EA045170BD41F4801196
:1006A0004FF0000E013C00F3AB8014F1360FDEBFBB
:1006B000002001F0004170BDC4F10004203C35DA97
:1006C0000C341BDC04F11404C4F1200500FA05F31A
:1006D00020FA04F001FA05F240EA020001F00042BB
:1006E00021F0004110EBD37021FA04F642EB060131
:1006F0005EEA430E08BF20EAD37070BDC4F10C045B
:10070000C4F1200500FA04F320FA05F001FA04F21E
:1007100040EA020001F0004110EBD37041F100010A
:100720005EEA430E08BF20EAD37070BDC4F1200515
:1007300000FA05F24EEA020E20FA04F301FA05F27D
:1007400043EA020321FA04F001F0004121FA04F225
:1007500020EA020000EBD3705EEA430E08BF20EAF5
:10076000D37070BD94F0000F0FD101F0004640002F
:1007700041EB010111F4801F08BF013CF7D041EAB1
:10078000060195F0000F18BF704703F000465200B5
:1007900043EB030313F4801F08BF013DF7D043EA86
:1007A0000603704794EA0C0F0CEA135518BF95EA3C
:1007B0000C0F0CD050EA410618BF52EA4306D1D1C3
:1007C00081EA030101F000414FF0000070BD50EAE2
:1007D000410606BF1046194652EA430619D094EA6C
:1007E0000C0F02D150EA013613D195EA0C0F05D156
:1007F00052EA03361CBF104619460AD181EA0301AA
:1008000001F0004141F0FE4141F470014FF0000061
:1008100070BD41F0FE4141F4780170BD70B54FF0FC
:10082000FF0C4CF4E06C1CEA11541DBF1CEA13557C
:1008300094EA0C0F95EA0C0F00F0A7F8A4EB05045E
:1008400081EA030E52EA03354FEA013100F0888055
:100850004FEA03334FF0805545EA131343EA12631E
:100860004FEA022245EA111545EA10654FEA0026D3
:100870000EF000419D4208BF964244F1FD0404F58C
:10088000407402D25B084FEA3202B61A65EB0305E8
:100890005B084FEA32024FF480104FF4002CB6EBA5
:1008A000020E75EB030E22BFB61A754640EA0C0025
:1008B0005B084FEA3202B6EB020E75EB030E22BF65
:1008C000B61A754640EA5C005B084FEA3202B6EBA6
:1008D000020E75EB030E22BFB61A754640EA9C0065
:1008E0005B084FEA3202B6EB020E75EB030E22BF35
:1008F000B61A754640EADC0055EA060E18D04FEAF3
:10090000051545EA16754FEA06164FEAC30343EA92
:1009100052734FEAC2025FEA1C1CC0D111F4801F5F
:100920000BD141EA00014FF000004FF0004CB6E758
:1009300011F4801F04BF01430020B4F1FD0C88BFF7
:10094000BCF5E06F3FF6AFAEB5EB030C04BFB6EB02
:10095000020C5FEA500C50F1000041EB045170BDF5
:100960000EF0004E4EEA113114EB5C04C2BFD4EB22
:100970000C0541EA045170BD41F480114FF0000EA6
:10098000013C90E645EA060E8DE60CEA135594EA22
:100990000C0F08BF95EA0C0F3FF43BAF94EA0C0F25
:1009A0000AD150EA01347FF434AF95EA0C0F7FF49A
:1009B00025AF104619462CE795EA0C0F06D152EAEE
:1009C00003353FF4FDAE1046194622E750EA4106D2
:1009D00018BF52EA43067FF4C5AE50EA41047FF4E3
:1009E0000DAF52EA43057FF4EBAE12E74FF0FF3C48
:1009F00006E000BF4FF0010C02E000BF4FF0010C19
:100A00004DF804CD4FEA410C7FEA6C5C4FEA430C91
:100A100018BF7FEA6C5C1BD001B050EA410C0CBFE0
:100A200052EA430C91EA030F02BF90EA020F002042
:100A3000704710F1000F91EA030F58BF994208BFA9
:100A400090422CBFD8176FEAE37040F00100704766
:100A50004FEA410C7FEA6C5C02D150EA013C07D1BD
:100A60004FEA430C7FEA6C5CD6D152EA033CD3D008
:100A70005DF8040B704700BF8446104662468C4602
:100A80001946634600E000BF01B5FFF7B7FF002835
:100A900048BF10F1000F01BD4DF808EDFFF7F4FF5E
:100AA0000CBF012000205DF808FB00BF4DF808EDE9
:100AB000FFF7EAFF34BF012000205DF808FB00BF0C
:100AC0004DF808EDFFF7E0FF94BF012000205DF82E
:100AD00008FB00BF4DF808EDFFF7CEFF94BF0120E3
:100AE00000205DF808FB00BF4DF808EDFFF7C4FFDC
:100AF00034BF012000205DF808FB00BF4FEA410C25
:100B00007FEA6C5C02D150EA013C0AD14FEA430C07
:100B10007FEA6C5C02D152EA033C02D14FF0000044
:100B200070474FF0010070474FEA410212F5001282
:100B300015D211D56FF47873B3EB625212D94FEA24
:100B4000C12343F0004343EA505311F0004F23FA0E
:100B500002F018BF404270474FF00000704750EA63
:100B6000013005D111F0004008BF6FF00040704720
:100B70004FF00000704700BF10B5054C237833B923
:100B8000044B13B10448AFF300800123237010BD60
:100B9000CC01002000000000443B000808B5034BD6
:100BA0001BB103490348AFF3008008BD00000000FB
:100BB000D0010020443B0008034AD2F8883043F4B7
:100BC0007003C2F88830704700ED00E001207047E4
:100BD00008B501F0F9F8162303604FF0FF3008BDA7
:100BE00008B54FF0FF31FFF7F3FFFEE770B50C4695
:100BF0001646002506E0AFF30080214601F8010B00
:100C000001350C46B542F6DB304670BD70B50C467A
:100C10001646002504E014F8010BAFF300800135FF
:100C2000B542F8DB304670BD4FF0FF3070474FF4EF
:100C300000534B6000207047012070470020704730
:100C400010B503460C4A0D490D48006840B10C48E8
:100C500000680344521A934206D8094A136010BD33
:100C60000748084C0460F2E701F0AEF80C2303607B
:100C70004FF0FF30F3E700BF000002200004000047
:100C8000E80100204803002008B500F09BF800F0C0
:100C90001FF900F0B7F900F005F800F0E9F830BFEF
:100CA000FDE70000444B1A6B42F001021A631A6B15
:100CB00042F002021A631A6B42F004021A63A3F5AF
:100CC00060531A6822F003021A601A6822F00C02BC
:100CD0001A601A6822F440721A60DA6822F003027D
:100CE000DA60DA6822F00C02DA60DA6822F4407224
:100CF000DA601A6822F440621A601A6822F44052DC
:100D00001A601A6822F440421A602C4A116821F4D1
:100D100040511160196841F480611960196841F40B
:100D200080511960196841F480411960116841F4DB
:100D300080511160996941F400119961996941F4F8
:100D400080019961996941F400019961936943F4C3
:100D500080039361136823F4401323F0C0031360EE
:100D6000136843F4001343F080031360136A23F401
:100D7000704343F480531362536A23F4706343F463
:100D8000807353620E4B1A6822F040621A60DA6870
:100D900022F04062DA601A6822F030021A601A68A3
:100DA00042F010021A60DA6822F03002DA609A69C2
:100DB00042F480229A6170470038024000040240E9
:100DC00000080240274A136843F480331360254B20
:100DD0001B6813F4003FFAD0224B1A6C42F0805289
:100DE0001A6421490A6822F4404242F400420A602F
:100DF00001F5E6310A6822F0070242F002020A60B9
:100E0000596821F0746121F45F3121F47F7121F080
:100E10000301164A0A435A601A6842F080721A6047
:100E2000104B1B6813F0007FFAD00E4B9A6822F02B
:100E3000F0029A609A6822F4E05242F480529A607A
:100E40009A6822F460429A609A6822F0030242F0A3
:100E500002029A60034B9B6803F00C03082BF9D144
:100E6000704700BF00380240007000400415400485
:100E7000154A136C43F0010313644FF0804353226F
:100E80009A6240F2E732DA629A6922F4F04242F45E
:100E9000D0429A61DA6922F0780242F06802DA619F
:100EA0001A6A42F488721A62DA6842F00102DA6061
:100EB000064A4FF080511160202182F81C131A68F5
:100EC00042F001021A6070470038024000E100E081
:100ED0000C4B1A680C4BA3FB02329209013A4FF0FB
:100EE000E0235A6100229A611A611A6942F00402F1
:100EF0001A611A6942F002021A611A6942F001028B
:100F00001A61704700000020D34D6210002806DDF2
:100F10000D4B0E4A9A614FF08043D863704700280A
:100F200008DB094B60229A614FF080434FF47A72DC
:100F3000DA637047404200B2034B054A9A614FF0B2
:100F40008043D863704700BF00000240400020008B
:100F50002000400000280BDD144B80229A6103F52D
:100F600080634FF480029A614FF08043986370472A
:100F700000280CDB0D4B80229A6103F58063402230
:100F80009A614FF080434FF47A729A6370474042FF
:100F900000B2064B4FF400029A6103F580634022D1
:100FA0009A614FF080439863704700BF0000024091
:100FB000024A536983F004035361704700080240FA
:100FC00008B50D4A1368013313600C4A1278D2B287
:100FD000012A08D04FF4FA72934206D2084A1368E5
:100FE0000133136008BD6422F6E7FFF7E1FF024B0F
:100FF00000221A60F2E700BFEC010020F20100209D
:10100000F8010020104A536C43F480435364A2F566
:101010008032536923F0F00343F0200353610B4BFC
:101020001A6842F400521A60DA6842F40052DA6038
:101030009A6842F400529A60054B202283F82823D4
:101040004FF480725A60704700380240003C014003
:1010500000E100E0104B5B6913F4005F0DD00F4B13
:101060001B6913F4005F09D10D4B1A680D4B1A6010
:10107000094A536943F4005353617047084B1B6896
:10108000084A12689B1A312BF2D9074A1378B3FA2F
:1010900083F35B091370EBE7003C0140000802405A
:1010A000F8010020F4010020F201002038B54FF0D3
:1010B00080431B6913F0010F26D04FF08042136963
:1010C00023F001031361424B01221A70414B1B783C
:1010D000A3B100F097F8044600F088F8054600F048
:1010E0007DF894B9A5B198B93B4B00221A70FA204B
:1010F000FFF70CFFFA20FFF72DFF05E00020FFF7B8
:1011000005FF0020FFF726FF38BD05B1F0B114B987
:1011100005B128BB14B105B960B314B905B990BBCA
:101120001CB1002839D1002CEED1002DECD10028C3
:10113000EAD1294B1B78012B39D0022B3FD0FA2062
:10114000FFF7E4FEFA20FFF705FFDDE7224B01225F
:101150001A70C820FFF7DAFEFA20FFF7FBFED3E78C
:101160001D4B02221A70FA20FFF7D0FEC820FFF7AD
:10117000F1FEC9E7184B01221A70FFF7C7FEFA20EB
:10118000FFF7E8FEC0E7144B02221A70FA20FFF7BF
:10119000BDFE0020FFF7DEFEB6E70F4B00221A70FF
:1011A000FA20FFF7B3FEFA20FFF7D4FEACE76FF0AA
:1011B000C700FFF7ABFEC820FFF7CCFEA4E7C820AE
:1011C000FFF7A4FE6FF0C700FFF7C4FE9CE700BF67
:1011D000F1010020F2010020F0010020024B18690B
:1011E00000F00100704700BF00000240044B1B6983
:1011F00013F0020F01D0012070470020704700BF9C
:1012000000000240044B1B6913F0100F01D00120B5
:1012100070470020704700BF00000240DFF834D064
:101220000D480E490E4A002302E0D458C45004333E
:10123000C4188C42F9D30B4A0B4C002301E0136015
:101240000432A242FBD3FFF7B7FC00F0C3FDFFF767
:101250001BFD70470000022000000020CC01002090
:101260001C3F0008CC01002048030020FEE72DE9C8
:10127000FF4757EC106B002F0C4619463B46BBBF8F
:1012800007F100431F4600232D230B700D9BDDF853
:1012900030A0914623F02008BCBF32461646B8F174
:1012A000460F05D0B8F1450F00D10134022100E00E
:1012B000032103AB019302AB009347EC106B534641
:1012C000224600F039FEB8F1470F054619D119F052
:1012D000010F0ED000EB04090022002330463946EE
:1012E000FFF7DAFB08B1CDF80C903022039B4B4599
:1012F0001ED3039B0E9A5B1B2846136004B0BDE807
:10130000F087B8F1460F00EB0409E5D10378302BE4
:101310000AD10022002330463946FFF7BDFB18B939
:10132000C4F10104CAF80040DAF800309944D3E768
:10133000591C03911A70D9E7F7B50029BABF494281
:101340002D232B2309290270437029DD0DF107039A
:101350001D460A271A46B1FBF7F607FB1614303470
:1013600002F8014C0C46632C03F1FF333146F1DCEB
:101370003031941E03F8011C411C2346AB420AD3B2
:101380000DF109039B1AAC4288BF002302330344CA
:10139000181A03B0F0BD13F8016B01F8016FEDE707
:1013A000302330318370C170031DF1E72DE9F04F18
:1013B0008DB00C46DDF8588016461F46054600F0F5
:1013C000B9FC036804931846FEF73AFF00230A931A
:1013D000D8F800300590073323F0070303F1080223
:1013E00094F818A0D4F800B0C8F80020D3E9008918
:1013F00029F000430793CDF81880C4E91289DDE98C
:1014000006019C4B4FF0FF32FFF778FB70BBDDE924
:101410000601984B4FF0FF32FFF752FB30BB002222
:10142000002340464946FFF741FB10B12D2384F8C5
:101430004330914A914BBAF1470F8CBF9046984682
:10144000032323612BF0040323604FF0000900976E
:1014500033460BAA2146284600F0D2F9013040F06D
:101460008D804FF0FF300DB0BDE8F08F42464B4607
:1014700040464946FFF742FB40B14B46002BBCBFFC
:101480002D2384F843307E4A7E4BD4E763680AF00C
:10149000DF0206925A1C3BD1062363604BF4806244
:1014A0000023226003930AABCDE901A309AB0093AB
:1014B000616849EC108B0DF123032846FFF7D7FE36
:1014C000069B0999472B804629D1C81C02DB63681B
:1014D000994241DDAAF1020A5FFA8AFA01395246BD
:1014E00004F150000991FFF727FF0A9A1318012A07
:1014F0008146236102DC2268D20701D501332361D2
:101500009DF82330002BA2D02D2384F843309EE792
:10151000069A472AC2D1002BC0D10123BDE7BAF1F8
:10152000650FDBD9BAF1660F18D1002963680BDDAE
:10153000216113B92268D00702D501330B4423611E
:10154000A1654FF00009DBE713B92268D20701D586
:101550000233F4E70123F2E74FF0670A0A9B99424E
:1015600005DB23682161D807EAD54B1CE7E7002992
:10157000D4BFC1F1020201221344E0E723685A05F7
:1015800007D42369424631462846B84701302BD15B
:1015900067E7BAF1650F40F2DD80D4E9120100225D
:1015A0000023FFF779FA002833D0374A0123314668
:1015B0002846B84701303FF454AFDDE909384345C8
:1015C00002DB2368D8070FD5DDE90423314628461E
:1015D000B84701303FF445AF4FF0000908F1FF383C
:1015E00004F11A0AC84509DC23689B0700F103814E
:1015F000E0680B9B9842B8BF184634E70123524677
:1016000031462846B84701303FF42BAF09F10109B4
:10161000E8E7099B002B39DC1B4A012331462846A9
:10162000B84701303FF41DAFDDE9093959EA03033A
:1016300002D12368D907D7D5DDE9042331462846EE
:10164000B84701303FF40DAF4FF0000A04F11A0B18
:10165000099B5B42534501DC4B4693E701235A4605
:1016600031462846B84701303FF4FBAE0AF1010A83
:10167000EEE700BFFFFFEF7F643B0008603B000820
:101680006C3B0008683B0008703B0008A36DDDF868
:1016900028A05345A8BF5346002B994636DC4FF08F
:1016A000000B29EAE97904F11A02A36D0693A3EB72
:1016B00009035B4531DC099B9A453ADC2368DA076C
:1016C00037D4099BAAEB0309069BAAEB03039945B0
:1016D000A8BF9946B9F1000F33DC4FF0000829EAA2
:1016E000E97904F11A0B099BAAEB0303A3EB0903A5
:1016F00043457FF779AF01235A4631462846B8471C
:1017000001303FF4AEAE08F10108ECE74246314645
:101710002846B8470130C2D1A3E601233146284606
:101720000692B84701303FF49CAE069A0BF1010BCC
:10173000BBE7DDE9042331462846B8470130C0D174
:101740008FE6069A4B46424431462846B847013058
:10175000C3D186E6DDF828A0BAF1010F01DCDB0772
:1017600036D50123424631462846B84701303FF47A
:1017700078AEDDE9042331462846B84701303FF40E
:1017800070AED4E91201002200230AF1FF3AFFF7FC
:1017900083F9C0B9534608F1010231462846B847DB
:1017A00001300CD15DE601235A4631462846B84740
:1017B00001303FF456AE08F10108D045F3DB4B464B
:1017C00004F15002DFE64FF0000804F11A0BF4E7D1
:1017D00001234246E1E701234A4631462846B847FD
:1017E00001303FF43EAE08F10108E3680B995B1A43
:1017F0004345F0DCFCE64FF0000804F11909F4E77A
:101800002DE9F047164698468A680B69DDF8209066
:101810009342B8BF1346336091F8432007460C4605
:101820000AB1013333602368990642BF336802333B
:101830003360256815F0060506D104F1190AE3683E
:1018400032689B1AAB4226DC94F843302268003B96
:1018500018BF012392062BD404F1430241463846B7
:10186000C84701301ED02368226903F00603042B09
:1018700002BFE5683368ED1AA3680CBF25EAE57579
:1018800000259342C4BF9B1AED1800261A34B542B6
:101890001AD1002008E00123524641463846C84785
:1018A000013003D14FF0FF30BDE8F0870135C6E7C6
:1018B000E1185A1C302081F84300224494F8451066
:1018C00082F843100233C7E70123224641463846D7
:1018D000C8470130E6D00136D9E700002DE9FF47BF
:1018E0000F7E0C9E782F914680460C469A4601F159
:1018F000430207D8622F0AD8002F00F0D180582F5A
:1019000000F0B88004F1420684F842703AE0A7F192
:101910006303152BF6D801A151F823F075190008BF
:10192000891900080519000805190008051900089B
:10193000051900088919000805190008051900088B
:101940000519000805190008871A0008B3190008CE
:10195000411A00080519000805190008A91A00080D
:1019600005190008B3190008051900080519000831
:10197000491A000833681A1D1B68326004F14206D8
:1019800084F8423001239CE033682068191D3160DF
:10199000060601D51D6803E04506FBD5B3F90050E6
:1019A000002D03DA2D236D4284F8433058480A2372
:1019B00011E021683368080653F8045B02D4490635
:1019C00048BFADB26F2F5248336014BF0A230823BB
:1019D000002184F843106668A660002E05DB2168AC
:1019E0002E4321F0040121604BD01646B5FBF3F1E4
:1019F00003FB1157C75D06F8017D2F46BB420D461C
:101A0000F4D9082B0BD12368DF0708D52369616857
:101A10009942DEBF302306F8013C06F1FF36921BE7
:101A20002261CDF800A04B4603AA21464046FFF7AD
:101A3000E7FE01304AD14FF0FF3004B0BDE8F08737
:101A4000236843F0200323603248782784F84570E8
:101A5000236831681F0651F8045B02D45F0648BF53
:101A6000ADB23160D90744BF43F0200323601DB1FC
:101A70001023ADE72648E9E7236823F0200323601D
:101A8000F6E71646BDE7336825686169181D3060C2
:101A90002E061B6801D5196002E06806FBD5198087
:101AA000002323611646BCE733681A1D32601E68A6
:101AB000626800213046FEF773FB08B1801B60604E
:101AC00063682361002384F84330AAE72369324620
:101AD00049464046D0470130ADD023689B0713D418
:101AE000E068039B9842B8BF1846A6E70123324638
:101AF00049464046D04701309DD00135E3680399FF
:101B00005B1AAB42F2DCEBE7002504F11906F5E7BE
:101B1000723B0008833B0008002310B50446C0E96F
:101B20000033C0E90433836081814366C2818361ED
:101B3000194608225C3000F0F4F80D4B63620D4B3F
:101B4000A3620D4BE3620D4B23630D4B24629C4259
:101B500006D003F16802944202D0D0339C4205D1F2
:101B600004F15800BDE8104000F058B910BD00BFA6
:101B70009D1C0008BF1C0008F71C00081B1D000866
:101B8000FC010020024A0349034800F069B800BF85
:101B900004000020A93400081400002041680C4B08
:101BA000994210B5044601D001F07EFCA168094BB2
:101BB000994202D0204601F077FCE168064B994239
:101BC00004D02046BDE8104001F06EBC10BD00BF3F
:101BD000FC01002064020020CC02002010B50B4B59
:101BE0000B4C0C4A1A60204600220421FFF794FF98
:101BF00004F1680001220921FFF78EFF04F1D000F3
:101C00000222BDE810401221FFF786BF34030020F6
:101C1000FC010020851B0008014800F000B900BF4E
:101C20003D030020014800F0FBB800BF3D03002049
:101C300010B50446FFF7F0FF236A1BB1BDE8104062
:101C4000FFF7F0BF044B2362044B1B68002BF5D158
:101C5000FFF7C4FFF2E700BF9D1B0008340300201C
:101C60002DE9F8430746884614460026D4E9019535
:101C7000B9F1010905D52468002CF7D13046BDE83B
:101C8000F883AB89012B07D9B5F90E30013303D0A6
:101C900029463846C04706436835E9E710B50C4683
:101CA000B1F90E1000F06CF80028ABBF636DA3898A
:101CB0001B1823F48053ACBF6365A38110BD2DE9CD
:101CC000F0411F468B89DB0505460C46164605D5B7
:101CD000B1F90E100223002200F040F8A389B4F9F4
:101CE0000E1023F48053A38132463B462846BDE8BC
:101CF000F04100F057B810B50C46B1F90E1000F0E5
:101D00002DF8431CA38915BF606523F4805343F469
:101D10008053A38118BFA38110BDB1F90E1000F04C
:101D20000DB802440346934200D1704703F8011BEB
:101D3000F9E70000004870475001002038B5064D13
:101D40000023044608462B60FEF76EFF431C02D1B9
:101D50002B6803B1236038BD3803002038B5074D28
:101D600004460846114600222A601A46FEF766FF1E
:101D7000431C02D12B6803B1236038BD3803002017
:101D800038B5074D04460846114600222A601A4617
:101D9000FEF72CFF431C02D12B6803B1236038BD32
:101DA0003803002038B5074D044608461146002286
:101DB0002A601A46FEF72AFF431C02D12B6803B1A2
:101DC000236038BD38030020014B1868704700BFFE
:101DD0001000002070B50D4D0D4C641BA4100026A2
:101DE000A64209D10B4D0C4C01F0ACFE641BA410B3
:101DF0000026A64205D170BD55F8043B9847013630
:101E0000EEE755F8043B98470136F2E7143F000827
:101E1000143F0008143F0008183F0008704770473F
:101E200070472DE9F74F03690C69A34207467EDB33
:101E3000013C01F11408A30000F11405009305EB27
:101E40008403019358F8243055F8242001339A4232
:101E500008EB8409B2FBF3F62ED34FF0000AC44618
:101E6000AE46D3465CF8043B98B206FB00A0020CD9
:101E70001B0C06FB0323DEF8002080B292B2121A7C
:101E80005A44DEF800004FEA134A9BB2C3EB2243E8
:101E900003EB104392B242EA0342E1454EF8042BB1
:101EA0004FEA234BDED2009BEB582BB9019B043B3E
:101EB0009D421A462FD33C61384601F069F900284B
:101EC00025DB2946002058F8042BD1F800C01FFA62
:101ED00082FE1FFA8CF3A3EB0E030344120CC2EB39
:101EE000234202EB1C429BB243EA0243C14541F844
:101EF000043B4FEA2240E6D255F8242005EB840348
:101F000022B9043B9D421A460BD33C610136304650
:101F100003B0BDE8F08F1268043B002ACBD1013C2E
:101F2000C6E71268043B002AEFD1013CEAE7002033
:101F3000EEE70000000000002DE9F04FC76999B0FE
:101F40008DED040B55EC104B229E099183460E92A9
:101F500013937FB9102000F0F3FD0246CBF81C006C
:101F600020B9A54BEF21A54801F0E4FAC0E90177BB
:101F70000760C760DBF81C30196859B15A684A60BD
:101F8000012393408B60584600F0D0FEDBF81C30F4
:101F900000221A602B1EB9BF23F0004305930023D3
:101FA0003360059F964BBCBF01223260BB4312D108
:101FB000139A42F20F731360C7F31303234300F025
:101FC0004385239BDFF84CA2002B00F045850AF1E6
:101FD000030300F03FBD9DED047B002251EC170B85
:101FE00000238DED0C7BFEF757FD804658B1139A08
:101FF00001231360239B13B1239A824B1360DFF8F4
:1020000018A200F029BD9DED0C0B16AA17A9584681
:1020100001F06EF9C7F30A568146002E77D00D9B6A
:10202000CDF85080C3F31303DDE90C0143F07F5377
:1020300043F44013A6F2FF3619460022724BFEF716
:102040000BF967A3D3E90023FEF7BEFA66A3D3E931
:102050000023FEF703F9044630460D46FEF74AFA20
:1020600063A3D3E90023FEF7AFFA02460B462046EE
:102070002946FEF7F3F804460D46FEF755FD00220B
:102080000746002320462946FEF710FD40B138469A
:10209000FEF730FA22462B46FEF7FEFC00B9013F60
:1020A000162F51D8594B03EBC703D3E90023DDE9C1
:1020B0000C01FEF7FBFC002848D0013F00231293DF
:1020C000169B9B1B5A1E44BFC3F1010800230892B4
:1020D00054BF4FF000080893002F39DB089B0F977F
:1020E0003B44089300230A93099B092B61D8052BD5
:1020F000C4BF043B0993099BA3F10203CCBF002496
:102100000124032B61D8DFE803F05052352ADDE9C2
:1021100016631E4406F23243202BC1BFC3F14003B5
:102120009F4006F2124324FA03F3D6BFC3F1200303
:1021300047EA030004FA03F0FEF7CCF90122A1F10B
:10214000F873013E149277E70123B8E71290B7E7DE
:102150007B420A930023A8EB07080F93C4E70123EF
:102160000B930E9BFB1800930133012B0393B8BF15
:10217000012306E001230B930E9B002B28DD009327
:102180000393DBF81C000021042202F114059D4298
:1021900023D94160584600F089FD824600283DD190
:1021A0001B4B024640F2AF11DDE60023E3E70023BC
:1021B000D6E70124002309930B944FF0FF330093DB
:1021C0000393002212230E92DBE701230B93F4E723
:1021D0000123009303931A46F5E701315200D4E737
:1021E00061436F63A787D23FB3C8608B288AC63F1D
:1021F000FB799F501344D33FA13B0008B83B000834
:102200000000F07F713B00080000F83F403D0008EF
:102210002D3C00089D3B0008703B0008DBF81C309B
:102220001860039B0E2B00F2A180002C00F09E8012
:10223000002F33DD9C4B07F00F0203EBC20393ED3D
:10224000007BF8058DED067B4FEA271416D5974BDA
:10225000DDE90C01D3E90823FEF7E0FACDE904013A
:1022600004F00F040326914D54B9DDE90623DDE99E
:102270000401FEF7D3FACDE9040128E00226F2E7D3
:10228000E10708D5DDE90601D5E90023FEF79CF951
:10229000CDE90601013664100835E5E700F0AF80AE
:1022A0007C42814B814D04F00F0203EBC203D3E962
:1022B0000023DDE90C01FEF787F9CDE904012411C3
:1022C00000230226002C40F08F80002BD3D1129BDC
:1022D000DDE90445002B00F09480754B0022204678
:1022E0002946FEF7E3FB002800F08B80039B002BC0
:1022F00000F08780009B002B34DD7B1E0693204678
:102300006C4B00222946FEF75FF9CDE90401009CE1
:1023100001363046FEF7EEF8DDE90423FEF754F906
:10232000654B0022FDF79AFF0546A1F15076002C7F
:102330006AD1DDE90401614B0022FDF78DFF024601
:102340000B46CDE904232A463346FEF7CDFB002891
:1023500040F08782DDE904012A4606F10043FEF7DA
:10236000A5FB38BBDDE90C34CDE90434179B002B09
:10237000C0F258810E2F00F355814B4B03EBC7037E
:1023800093ED007B0E9B002B8DED007B80F2E580B2
:10239000039B002B00F3E1800CD1484B002251EC51
:1023A000170BFEF711F9DDE90423FEF793FB002874
:1023B00000F05582002425460E9BDB4306935646CB
:1023C00000272146584600F0B1FC002D00F0BD80EA
:1023D0002FB1AF4203D03946584600F0A7FC29463A
:1023E000584600F0A3FCB0E0E20705D5D5E900238C
:1023F000FEF7EAF8013601236410083562E7022689
:1024000065E7039C069784E7274B0B9903EBC4030E
:1024100053E902235444002954D029490020FEF7EF
:10242000FDF933462A46FDF717FFCDE91001564660
:10243000DDE90401FEF778FB0546FEF75BF802468E
:102440000B46DDE90401FDF707FF303502460B4678
:10245000CDE9042306F8015BDDE91023FEF726FB36
:10246000002872D1DDE9042311490020FDF7F4FEB4
:10247000DDE91023FEF71AFB002840F0B480A642E5
:102480003FF470AFDDE910010A4B0022FEF79CF823
:10249000084BCDE910010022DDE90401FEF794F8B4
:1024A000CDE90401C4E700BF403D0008183D000825
:1024B0000000F03F0000244000001C4000001440D9
:1024C0000000E03F31462846FEF77EF8CDE91001D6
:1024D00015945646DDE90401FEF726FB0546FEF796
:1024E00009F802460B46DDE90401FDF7B5FE30357B
:1024F00006F8015B02460B46A642CDE904234FF0E5
:10250000000224D1AB4BDDE91001FDF7A7FE024626
:102510000B46DDE90401FEF7E7FA002863D1DDE9A7
:102520001023A4490020FDF797FE02460B46DDE983
:102530000401FEF7BBFA00283FF414AF159E731E8A
:10254000159316F8013C302BF8D0069F3BE09A4BD0
:10255000FEF73AF8CDE90401BCE7DDE9044556464B
:10256000DDE9002320462946FEF758F9FEF7DCFA9C
:102570008046FDF7BFFFDDE90023FEF725F80246A0
:102580000B462046294608F13004FDF765FE06F8A3
:10259000014B039DA6EB0A04A54202460B4634D12B
:1025A000FDF75CFEDDE9002304460D46FEF79CFACC
:1025B000C0B9DDE9002320462946FEF76DFA10B1C7
:1025C00018F0010F0ED14946584600F0AFFB00232A
:1025D0003370139B01371F60239B002B00F03C825C
:1025E0001E6039E2069733461E4613F8012D392A3C
:1025F00007D19A45F8D1069A0132069230228AF81C
:1026000000201A7801321A709FE76B4B0022FDF709
:10261000DBFF0022002304460D46FEF73DFA0028AA
:102620009ED0D0E70B9A002A00F0E180099A012A97
:1026300000F3C480149A002A00F0B78003F23343F9
:102640000A9C4646089A01211A4458469844089222
:1026500000F020FC05465EB1089B002B08DDB3426C
:10266000089AA8BF3346A8EB0308F61AD31A0893B2
:102670000A9BF3B10B9B002B00F0BD808CB1294667
:102680002246584600F0BEFC4A46014605465846DA
:1026900000F016FC49460690584600F047FB069BA2
:1026A00099460A9B1A1B04D04946584600F0AAFCDA
:1026B00081460121584600F0EDFB0F9B0446002B9C
:1026C00000F0CE811A460146584600F09BFC099B5B
:1026D000012B044600F39580049B002B40F08D8075
:1026E000059BC3F31303002B40F08980059B23F067
:1026F00000431B0D1B052BB1089B0133089308F108
:10270000010801230A930F9B002B00F0AF8123697E
:1027100004EB8303186900F071FBC0F12000089BF3
:10272000184410F01F0077D0C0F12003042B6BDD9C
:10273000089BC0F11C000344804406440893B8F190
:10274000000F05DD49464246584600F0B5FC81467B
:10275000089B002B05DD21461A46584600F0ACFCCC
:102760000446129B002B59D02146484600F010FD2C
:10277000002853DA7B1E0693494600230A22584656
:1027800000F0F6FA0B9B8146002B00F071810023CC
:1027900029460A22584600F0EBFA009B002B05461A
:1027A00067DC099B022B41DC63E0169BC3F1360317
:1027B00046E700BF0000E03F00002440039B5C1E92
:1027C0000A9BA34209DB1C1B039B002BBFF639AFFE
:1027D000039BA8EB0306002334E70A9B0F9A0A9495
:1027E000E31A1A440F92039B464600242AE70A9CE8
:1027F0000B9D46462FE70A9A56E7002382E7049B83
:1028000080E700230A9382E799D0089A1C331A4480
:1028100098441E44089292E70346F6E7039B069706
:10282000002B20DC0093099B022B1EDD009B002B5C
:102830007FF4C2AD21460522584600F099FA0146C0
:102840000446484600F0A4FC00287FF7B5AD564684
:10285000312306F8013B069B01330693B0E5039C48
:1028600006972546F3E7039B00930B9B002B00F094
:102870000381002E05DD29463246584600F01CFC37
:1028800005460A9B002B5AD06968584600F00EFA9C
:10289000064628B9834B024640F2EF21FFF763BB9F
:1028A0002A690232920005F10C010C3000F034FE6E
:1028B00001223146584600F0FFFB0AF10103039361
:1028C000009B53440B93049B03F001032F460A9390
:1028D0000546039B2146013B48460093FFF7A1FABA
:1028E0003946049000F13008484600F051FC2A4671
:1028F00008902146584600F067FCC268064602BBB5
:102900000146484600F044FC0246314658460E92C5
:1029100000F00CFA099B0E9A039E42EA03010A9BFF
:10292000194310D1B8F1390F29D0089B002B02DDD3
:10293000049B03F13108009B83F8008041E52846A1
:10294000BBE70122E1E7089B002B04DB09990B435D
:102950000A990B4320D1002AEDDD49460122584651
:1029600000F0AAFB2146814600F012FC002803DC9F
:10297000E1D118F0010FDED0B8F1390FD8D1009AAB
:102980003923137033461E46013B16F8012C392AB1
:1029900051D001321A7014E5002A07DDB8F1390F61
:1029A000EDD0009A08F1010313700AE5039B0B9A1E
:1029B00003F8018C934228D0494600230A22584646
:1029C00000F0D6F9AF4281464FF000034FF00A0203
:1029D0003946584607D100F0CBF907460546039B18
:1029E0000133039375E700F0C3F929460746002336
:1029F0000A22584600F0BCF90546F0E7009B002B80
:102A0000CCBF1E460126564400274946012258469F
:102A100000F052FB2146814600F0BAFB0028B1DCF1
:102A200002D118F0010FADD133461E4613F8012D27
:102A3000302AFAD0C5E49A45A5D1069B0133069306
:102A400031238AF80030BCE4239BDFF85CA01BB183
:102A50000AF10803239A1360504619B0BDE8F08FBD
:102A6000099B012B7FF738AE0F9B0A93012056E696
:102A7000009B002B7FF7D7AE564621464846FFF70E
:102A8000D0F900F1300806F8018B009BA6EB0A0292
:102A90009342B3DD494600230A22584600F068F904
:102AA0008146EAE72D3C0008943B000838B505460E
:102AB000002941D051F8043C0C1F002BB8BFE4188A
:102AC00000F0E8F81D4A136833B9636014602846C3
:102AD000BDE8384000F0E4B8A34208D920682118C6
:102AE0008B4201BF19685B6809182160EDE71A463F
:102AF0005B680BB1A342FAD911685018A0420BD100
:102B000020680144501883421160E0D118685B6866
:102B1000536008441060DAE702D90C232B60D6E733
:102B2000206821188B4204BF19685B68636004BF8A
:102B3000091821605460CAE738BD00BF4403002073
:102B4000024B0146186800F025B800BF10000020B5
:102B500070B50F4E0C463168054611B900F0CCFC3B
:102B600030602146284600F0C7FC431C03D14FF0DB
:102B7000FF34204670BDC41C24F00304A042F8D0EA
:102B8000211A284600F0B8FC0130F2D1EFE700BF6F
:102B9000400300202DE9F843CD1C25F0030508353E
:102BA0000C2D38BF0C25002D064601DBA94204D9A7
:102BB0000C2333600020BDE8F883DFF8D48000F0F8
:102BC00069F8D8F800301C4644BB29463046FFF768
:102BD000BFFF431C044658D1D8F800402746002FB9
:102BE00043D1002C4BD023683946304604EB03090F
:102BF00000F082FC814542D121686D1A2946304699
:102C0000FFF7A6FF01303AD023682B442360D8F8A1
:102C100000305A6862BBC8F800700FE02268521B8F
:102C200020D40B2A17D96119A342256018BF596017
:102C3000636808BFC8F8001062514B60304600F06E
:102C40002FF804F10B00231D20F00700C21A1CBF4F
:102C50001B1AA350AFE76268A3420CBFC8F800205C
:102C60005A60EBE723466468AEE73C467F68B6E708
:102C70001A465B68A342FBD100235360DEE70C23B6
:102C80003360304600F00CF894E70560D6E700BFEB
:102C9000440300200148FFF7C2B800BF3C030020F6
:102CA0000148FFF7BDB800BF3C03002070B5C669FE
:102CB00004460D4676B91020FFF742FF0246E06158
:102CC00020B9184B18486B2100F034FCC0E90166AC
:102CD0000660C660E669F36883B1E369DB6853F8B0
:102CE0002500B8B9012101FA05F6721D92002046AF
:102CF00000F03EFC60B1C0E901560EE02122042143
:102D0000204600F035FCE369F060DB68002BE4D17D
:102D1000002070BD026843F825200023C0E903337A
:102D2000F7E700BFA13B00083E3C000870B5C6694C
:102D300005460C4676B91020FFF702FF0246E8610F
:102D400020B9094B09488F2100F0F4FBC0E9016666
:102D50000660C6603CB1EB696268DB6853F822101C
:102D6000216043F8224070BDA13B00083E3C0008B2
:102D70002DE9F0410D6907460C461E4601F1140C81
:102D80000020DCF8003099B202FB01611E0C0B0C34
:102D900002FB063389B2013001EB034185424CF856
:102DA000041B4FEA1346ECDC0EB3A368AB4219DCFC
:102DB000616838460131FFF779FF804628B902463D
:102DC0000C4B0D48BA2100F0B5FB2269023204F128
:102DD0000C0192000C3000F09FFB21463846FFF7B3
:102DE000A5FF444604EB850301355E61256120465D
:102DF000BDE8F0812D3C00083E3C0008B0F5803F66
:102E0000034636BF030400201020B3F1807F3CBF8F
:102E10001B020830B3F1805F3CBF1B010430B3F1EB
:102E2000804F3CBF9B000230002B05DB13F0804F2E
:102E300000F1010008BF202070470368024613F02C
:102E400007000BD0D90721D4980749BF5B089B081E
:102E5000012013605CBF13600220704799B209B96A
:102E60001B0C1020D9B209B908301B0A190704BF7E
:102E70001B090430990704BF9B080230D90703D40B
:102E80005B0800F1010003D0136070470020704719
:102E90002020704710B50C460121FFF707FF0246BE
:102EA00028B9054B054840F2451100F043FB0123CA
:102EB0004461036110BD00BF2D3C00083E3C00088A
:102EC0002DE9F04F17460A693B699A42A8BF3B4675
:102ED0008946A4BF0F4699463D69D9F810A0BB6842
:102EE000796805EB0A06B34285B0B8BF0131FFF738
:102EF000DDFE30B90246414B41484FF4B17100F05C
:102F000019FB00F1140404EB860E234600227345DE
:102F100020D307F1140809F1140108EB850501EB32
:102F20008A030293EB1B153B23F00303043315378D
:102F3000BD4238BF04230193029B03918B420CD8FE
:102F4000002E03DD5EF8043D002B55D0066105B070
:102F5000BDE8F08F43F8042BD9E7B1F800A0BAF12F
:102F6000000F1FD0C446A14600275CF8042BD9F8F7
:102F700000301FFA82FB9BB20AFB0B333B44D9F8AB
:102F80000070120C3F0C0AFB027202EB13429BB260
:102F900043EA0243654549F8043B4FEA1247E4D847
:102FA000019BE750039BB3F802900431B9F1000F85
:102FB00020D023684746A4464FF0000AB7F800B077
:102FC000BCF8022009FB0B2252449BB243EA0243A5
:102FD0004CF8043B57F8043B4FEA134ABCF8003066
:102FE00009FB0A3303EB1243BD424FEA134AE5D80B
:102FF000019AA35004349FE7013EA1E72D3C00084D
:103000003E3C00082DE9F843154612F0030207463E
:103010000E4607D0254C013A002354F82220FFF732
:10302000A7FE0646AD103DD0FC697CB91020FFF725
:1030300087FD0246F86128B91D4B1E4840F2B311C6
:1030400000F078FAC0E901440460C460D7F81C803D
:10305000D8F808404CB940F271213846FFF71AFF02
:103060000023C8F80800044603604FF00009EB078E
:103070000AD5314622463846FFF722FF31468046C0
:103080003846FFF753FE46466D100BD0206838B91E
:10309000224621463846FFF713FF2060C0F8009013
:1030A0000446E4E73046BDE8F88300BF0C3D000865
:1030B000A13B00083E3C00082DE9F0470C4649685A
:1030C000236903EB6218A368074691464FEA621A28
:1030D00008F10106B3420BDB3846FFF7E7FD054672
:1030E00048B90246284B29484FF4EF7100F022FA04
:1030F00001315B00EEE7002300F1140100F1100242
:103100001846534533DB20692AEAEA7A04F11403AE
:1031100019F01F0901EB8A0103EB800C2BD0C9F1D8
:10312000200E8A460022186800FA09F010434AF877
:10313000040B53F8042B9C4522FA0EF2F3D8ACEBA7
:103140000403153B23F00303043304F11500604529
:1031500088BF0423CA500AB108F10206013E38466E
:103160002E612146FFF7E2FD2846BDE8F08742F8D0
:10317000040F0133C5E7043953F8042B41F8042F39
:103180009C45F9D8EAE700BF2D3C00083E3C00080A
:103190000A6903460069801A30B50ED11433143120
:1031A00003EB820401EB820154F8045D51F8042D15
:1031B000954203D005D24FF0FF3030BDA342F3D388
:1031C000FBE70120F9E700002DE9F74F89460646A5
:1031D000114648461446FFF7DBFF051E12D129466B
:1031E0003046FFF763FD024628B93F4B40F23721D6
:1031F0003E4800F09FF90123C0E90435104603B0B2
:10320000BDE8F08FBCBF4B46A1463046D9F804104C
:10321000BABF1C4601250025FFF748FD024618B934
:10322000314B40F24521E3E7D9F810702669C560BB
:1032300009F1100309F1140504F1140E00F1140B47
:1032400005EB87080EEB86060193D9464FF0000C7C
:10325000019B5EF8040B53F804AF01931FFA8AF345
:10326000194683B2CB1A000C6344C0EB1A4000EB42
:1032700023409BB243EA0043764549F8043B4FEABA
:10328000204CE5D8331B153B23F0030315340433DE
:10329000A64238BF04231D445B441E462C464445C9
:1032A0000ED308F10301491B21F00301033DA8459A
:1032B00038BF00210B4453F8041D91B117619DE7FD
:1032C00054F8041BE646080C1CFA81FC714400EB20
:1032D0002C4089B241EA004146F8041B4FEA204CD9
:1032E000DDE7013FE7E700BF2D3C00083E3C00085A
:1032F0002DE9F7430F46012159EC108B1646FFF7D5
:10330000D5FC044630B90246234B244840F20F3125
:1033100000F010F9C9F30A55C9F313030DB143F4D2
:1033200080130193B8F1000323D068460093FFF7A0
:1033300084FDDDE90012D0B1C0F1200302FA03F3ED
:103340000B43C24063610192019BA361002B0CBF40
:10335000012202222261A5B1A5F2334505443D6058
:10336000C0F135003060204603B0BDE8F0836161F4
:10337000EAE701A8FFF761FD019B636120300122AC
:10338000E8E704EB8203A0F2324038601869FFF7E7
:1033900035FDC0EB4210E5E72D3C00083E3C00083F
:1033A000B1F90C202DE9F041160705460C4654D41E
:1033B0004B68002B02DC0B6C002B48DDE66A002E0C
:1033C00045D0002312F480522F68216A2B6030D040
:1033D000626DA389590705D56368D21A636B0BB177
:1033E000236CD21A0023E66A216A2846B047431CA0
:1033F000A38906D129681D292BD82A4ACA40D60795
:1034000027D500226260D9042269226004D5421CBB
:1034100001D12B6803B96065616B2F60B9B104F10C
:103420004403994202D02846FFF740FB0023636320
:103430000DE001232846B0470246501CC9D12B6835
:10344000002BC6D01D2B01D0162B1ED12F600020C3
:1034500022E043F040031BB21BE00F69002FF6D0BF
:1034600093070E6808BF4B690F6018BF0023A6EBD7
:1034700007088B60B8F1000FE9DD216AA66A4346B0
:103480003A462846B047002808DCB4F90C3043F02F
:103490004003A3814FF0FF30BDE8F0810744A8EB63
:1034A0000008E7E70100402038B50B6905460C46E7
:1034B00013B90025284638BD18B1036A0BB9FEF7C9
:1034C000B7FBB4F90C30002BF3D0626ED00704D4F4
:1034D000990502D4A06DFEF7A2FC28462146FFF70D
:1034E0005FFF636EDA070546E4D4A3899B05E1D448
:1034F000A06DFEF795FCDDE738B5064D00230446C8
:1035000008462B60FDF79CFB431C02D12B6803B1DE
:10351000236038BD380300200A44914200F1FF3394
:1035200000D1704710B511F8014B03F8014F9142DB
:10353000F9D110BD1FB514461A46094B1B68054644
:10354000D8684CB1074B0091CDE9013406492B46B0
:1035500000F042F800F052F8044B1C46F3E700BFBD
:1035600010000020BE3C0008CB3C0008F93C0008DD
:1035700070B5A1FB025434B92946FFF70BFB064690
:1035800028B9304670BD0C2202600026F9E72A46B1
:103590002146FEF7C6FBF4E782B001B901A942B1AA
:1035A0004BB113780B601278101E18BF012002B0C7
:1035B00070471046FBE76FF00100F8E70346084646
:1035C00041B1FF2A04D98A221A604FF0FF307047B8
:1035D0000A700120704700000EB403B5014603AB2A
:1035E000054853F8042B0068019300F037F802B047
:1035F0005DF804EB03B070471000002008B506200A
:1036000000F000FA0120FDF7EBFA9368013B002B74
:1036100010B4936008DA9469A34201DB0A2903D14C
:103620005DF8044B00F032B91368581C1060197033
:1036300008465DF8044B7047F8B506460F46144639
:10364000D518AC4201D1002007E014F8011B3A461E
:103650003046FFF7DAFF431CF3D1F8BD2DE9F04FF8
:103660000D469DB014469846064618B1036A0BB93C
:10367000FEF7DEFA6B6ED90705D4AB899A0502D442
:10368000A86DFEF7CCFBAB891B0701D52B699BB955
:103690002946304600F038F970B16B6EDC0704D56E
:1036A0004FF0FF301DB0BDE8F08FAB899805F7D41F
:1036B000A86DFEF7B5FBF3E70023099320238DF8EF
:1036C0002930CDF80C803023DFF8AC818DF82A301A
:1036D0004FF0010923469A4613F8012B0AB1252A17
:1036E000F9D1BAEB040B0BD05B4622462946304693
:1036F000FFF7A2FF013000F0A780099A5A4409920F
:103700009AF80030002B00F09F8000234FF0FF322A
:10371000CDE905230AF1010A049307938DF853308C
:103720001A935446052214F8011B5348FCF738FD40
:10373000049AD8B9D10644BF20238DF8533013071B
:1037400044BF2B238DF853309AF800302A2B15D024
:10375000079A544600204FF00A0C214611F8013B0D
:10376000303B092B4BD9B0B1079214E0A0EB080312
:1037700009FA03F313430493A246D2E7039B191DEE
:103780001B680391002BBBBF5B4242F00202079310
:103790000793B8BF049223782E2B0AD163782A2B83
:1037A00032D1039B1A1D1B68039243EAE373023470
:1037B0000593DFF8D4A0217803225046FCF7F0FCF3
:1037C00038B1049BA0EB0A0040228240134301342D
:1037D000049314F8011B29488DF828100622FCF7E1
:1037E000DFFC00283FD0264B1BBB039B073323F095
:1037F000070308330393099B3B4409936AE70CFBD7
:1038000002320C460120A8E7002301340593194633
:103810004FF00A0C204610F8012B303A092A03D940
:10382000002BC6D00591C4E70CFB012104460123FF
:10383000F0E703AB00932A46124B04A93046FDF78C
:10384000B5FD0746781CD6D16B6ED90705D4AB8978
:103850009A0502D4A86DFEF7E3FAAB895B063FF543
:103860001FAF09981EE703AB00932A46054B04A936
:103870003046FEF733F8E4E7FA3C0008043D000860
:10388000AD13000839360008003D0008F8B50E46B3
:103890001446054618B1036A0BB9FEF7C9F9A369C6
:1038A000A360A3891A0701D5236943B92146284695
:1038B00000F02AF818B14FF0FF373846F8BD2368FA
:1038C0002269981A6369F6B28342374605DC2146BD
:1038D0002846FFF7E9FD0028EDD1A368013BA3606E
:1038E00023685A1C22601E706269431C9A4204D0ED
:1038F000A389DB07E1D50A2EDFD121462846FFF751
:10390000D3FD0028D9D0D6E738B5294B054618682D
:103910000C4618B1036A0BB9FEF78AF9B4F90C30FA
:10392000190722D4DA0607D409222A6043F040039B
:10393000A3814FF0FF3033E0580712D5616B41B1DE
:1039400004F14403994202D02846FFF7AFF8002360
:103950006363A38923F02403A381002363602369A5
:103960002360A38943F00803A38123694BB9A3898A
:1039700003F42073B3F5007F03D02146284600F0FE
:1039800083F8B4F90C3013F001020AD00022A260CF
:1039900062695242A261226942B913F08000C5D126
:1039A00038BD990758BF6269A260F4E70020F7E7C5
:1039B000100000201F2938B505460C4604D91623EF
:1039C00003604FF0FF3038BDC26B12B152F82130A6
:1039D0004BB9284600F030F8224601462846BDE89B
:1039E000384000F017B8012B0AD0591C03D1162318
:1039F00003600120E7E7002142F8241020469847A1
:103A00000020E0E7024B01461868FFF7D3BF00BF74
:103A10001000002038B5074D002304460846114623
:103A20002B60FDF7D5F8431C02D12B6803B123604E
:103A300038BD00BF38030020FDF7C8B870B50C468C
:103A4000B1F90E10002996B015461E460DDAA3896D
:103A500013F0800F4FF0000114BF40234FF4806338
:103A6000002031602B6016B070BD6A4600F048F847
:103A70000028ECDB019901F47041A1F50053594293
:103A800059414FF48063EBE78B89F7B59D070646F4
:103A90000C4607D504F147032360236101236361CA
:103AA00003B0F0BD01AB6A46FFF7C8FF009F0546B3
:103AB00039463046FFF76EF848B9B4F90C309A052C
:103AC000EED423F0030343F00203A381E2E7A389CA
:103AD000206043F08003A381019BC4E904075BB12C
:103AE000B4F90E10304600F01DF828B1A38923F078
:103AF000030343F00103A381A3891D43A581CFE7FD
:103B000038B5074D00230446084611462B60FDF7E3
:103B10008EF8431C02D12B6803B1236038BD00BF6F
:103B20003803002038B5064D0023044608462B60B4
:103B3000FDF782F8431C02D12B6803B1236038BD26
:103B400038030020F8B500BFF8BC08BC9E4670479B
:0C3B5000F8B500BFF8BC08BC9E467047EA
:103B6000494E4600696E66004E414E006E616E0021
:103B700030003031323334353637383941424344FE
:103B80004546003031323334353637383961626377
:103B900064656600496E66696E697479004E614EAF
:103BA000005245454E54206D616C6C6F63207375F7
:103BB00063636565646564002F5F5F772F61726D75
:103BC0002D6E6F6E652D656162692D6763632D785B
:103BD0007061636B2F61726D2D6E6F6E652D656107
:103BE00062692D6763632D787061636B2F627569FD
:103BF0006C642F77696E33322D7836342F736F757E
:103C0000726365732F6E65776C69622D6379677770
:103C1000696E2F6E65776C69622F6C6962632F73B2
:103C200074646C69622F64746F612E630042616C0E
:103C30006C6F6320737563636565646564002F5FF3
:103C40005F772F61726D2D6E6F6E652D6561626994
:103C50002D6763632D787061636B2F61726D2D6EBC
:103C60006F6E652D656162692D6763632D78706184
:103C7000636B2F6275696C642F77696E33322D78B0
:103C800036342F736F75726365732F6E65776C6949
:103C9000622D63796777696E2F6E65776C69622F25
:103CA0006C6962632F7374646C69622F6D707265E6
:103CB000632E63004300504F534958002E002C20C0
:103CC00066756E6374696F6E3A2000617373657216
:103CD00074696F6E2022257322206661696C6564A9
:103CE0003A2066696C6520222573222C206C696E4F
:103CF00065202564257325730A00232D302B2000B1
:103D0000686C4C006566674546470000050000008A
:103D1000190000007D0000000080E03779C34143B6
:103D2000176E05B5B5B89346F5F93FE9034F384D21
:103D3000321D30F94877825A3CBF737FDD4F1575CD
:103D4000000000000000F03F0000000000002440E0
:103D500000000000000059400000000000408F40BB
:103D6000000000000088C34000000000006AF84026
:103D70000000000080842E4100000000D01263414A
:103D80000000000084D797410000000065CDCD41C0
:103D9000000000205FA00242000000E876483742A1
:103DA000000000A2941A6D42000040E59C30A2423F
:103DB0000000901EC4BCD64200003426F56B0C43B4
:103DC0000080E03779C3414300A0D885573476435B
:103DD00000C84E676DC1AB43003D9160E458E143BC
:103DE000408CB5781DAF154450EFE2D6E41A4B4431
:103DF00092D54D06CFF08044F64AE1C7022DB54476
:103E0000B49DD9794378EA44002020202020202046
:103E1000202028282828282020202020202020207A
:103E2000202020202020202020881010101010108A
:103E300010101010101010101004040404040404D6
:103E40000404041010101010101041414141414170
:103E50000101010101010101010101010101010152
:103E60000101010110101010101042424242424262
:103E70000202020202020202020202020202020222
:103E800002020202101010102000000000000000CA
:103E90000000000000000000000000000000000022
:103EA0000000000000000000000000000000000012
:103EB0000000000000000000000000000000000002
:103EC00000000000000000000000000000000000F2
:103ED00000000000000000000000000000000000E2
:103EE00000000000000000000000000000000000D2
:103EF00000000000000000000000000000000000C2
:0C3F0000000000000000000000000000B5
:083F0C0094C2FF7F01000000D8
:043F14009D0B0008F9
:043F1800790B000819
:103F1C000024F4000000000003000000FC0100205D
:103F2C001400002000000000FC01002064020020AE
:103F3C00CC02002000000000000000000000000087
:103F4C000000000000000000000000000000000065
:103F5C000000000000000000000000000000000055
:103F6C000000000000000000000000000000000045
:103F7C0043000000000000000000000000000000F2
:103F8C000000000000000000000000000000000025
:103F9C0043000000000000000000000000000000D2
:103FAC000000000000000000000000000000000005
:103FBC0043000000000000000000000000000000B2
:103FCC0000000000000000000000000000000000E5
:103FDC004300000000000000000000000000000092
:103FEC0000000000000000000000000000000000C5
:103FFC004300000000000000000000000000000072
:10400C0000000000000000000000000000000000A4
:10401C004300000000000000000000000000000051
:10402C000000000000000000000000000000000084
:10403C004300000000000000000000000000000031
:10404C000000000000000000000000000000000064
:10405C00BD3500089935000800000000083E000836
:10406C00BC3C0008F93C0008F93C0008F93C00088D
:10407C00F93C0008F93C0008F93C0008F93C000840
:10408C00F93C0008F93C0008FFFFFFFFFFFFFFFFB2
:10409C00FFFFFFFFFFFF00000100415343494900B0
:1040AC000000000000000000000000000000000004
:1040BC00000000000000000000004153434949008B
:1040CC0000000000000000000000000000000000E4
:0C40DC00000000000000000000000000D8
:040000050800121DC0
:00000001FF
